:020000040800F2
:10000000F0060020CD010008CD0600086D060008AE
:100010008F0600087D0400087F1000080000000023
:10002000000000000000000000000000E9070008D8
:1000300081040008000000008D0700080D09000879
:10004000E7010008E7010008E7010008E7010008F0
:10005000E7010008E7010008E7010008E7010008E0
:10006000E7010008E7010008E7010008E7010008D0
:10007000E7010008E7010008E7010008E7010008C0
:10008000E7010008E7010008E7010008E7010008B0
:10009000E7010008E7010008E7010008E7010008A0
:1000A000E7010008E7010008E7010008E701000890
:1000B000E7010008E7010008E7010008E701000880
:1000C000E7010008E7010008E7010008E701000870
:1000D000E7010008A90F0008E7010008E701000890
:1000E000E7010008E7010008E7010008E701000850
:1000F000E7010008E7010008E7010008E701000840
:10010000E7010008E7010008E7010008E70100082F
:10011000E7010008E7010008E7010008E70100081F
:10012000E7010008E7010008E7010008E70100080F
:1001300000F002F800F03AF80AA090E8000C8244BF
:100140008344AAF10107DA4501D100F02FF8AFF29C
:10015000090EBAE80F0013F0010F18BFFB1A43F0A5
:1001600001031847BC150000DC150000103A24BF3D
:1001700078C878C1FAD8520724BF30C830C144BF0C
:1001800004680C607047000000230024002500264E
:10019000103A28BF78C1FBD8520728BF30C148BFEA
:1001A0000B6070471FB51FBD10B510BD00F031F8D2
:1001B0001146FFF7F7FF00F0BFFF00F04FF803B460
:1001C000FFF7F2FF03BC00F053F800000948804736
:1001D00009480047FEE7FEE7FEE7FEE7FEE7FEE729
:1001E000FEE7FEE7FEE7FEE704480549054A064B41
:1001F000704700004D09000831010008F0000020A0
:10020000F0060020F0020020F00200207047704746
:100210007047754600F028F8AE460500694653461B
:1002200020F00700854618B020B5FFF7DDFFBDE8D8
:1002300020404FF000064FF000074FF000084FF04D
:10024000000B21F00701AC46ACE8C009ACE8C009DE
:10025000ACE8C009ACE8C0098D4670470446AFF36E
:1002600000802046FFF7ABFF004870478C0000205D
:1002700001491820ABBEFEE726000200704721B1FD
:10028000826842F00102826003E0826822F001028B
:1002900082607047014600208A6802F004020AB1B9
:1002A000012000E0002070470146C86C80B2704712
:1002B0000246002013680B400BB1012000E0002033
:1002C0007047014600208A6802F008020AB1012046
:1002D00000E000207047000030B5024600200023F7
:1002E00050680F4C20400D790C6844EA05242043E7
:1002F000506090680B4C2040D1E902542C434D795A
:1003000044EA450420439060D06A20F470000C7CDD
:10031000641EE4B2234340EA0350D06230BD0000C3
:10032000FFFEF0FFFDF7F1FFF0B504460D4600209B
:100330000021092D11DDE068A5F10A0606EB46074C
:10034000072606FA07F18843A5F10A0606EB4606DA
:1003500003FA06F10843E0600CE0206905EB45076D
:10036000072606FA07F1884305EB450603FA06F16E
:1003700008432061072A0FDA606B561E06EB8607DA
:100380001F2606FA07F18843561E06EB860605FA75
:1003900006F10843606322E00D2A0FDA206BD61FB6
:1003A00006EB86071F2606FA07F18843D61F06EBE1
:1003B000860605FA06F10843206310E0E06AA2F120
:1003C0000D0606EB86071F2606FA07F18843A2F101
:1003D0000D0606EB860605FA06F10843E062F0BD5D
:1003E000816841F008018160704721B1826842F460
:1003F000A002826003E0826822F4A002826070475B
:10040000816841F004018160704710B586B00446F0
:100410000121480200F0D8F94FF4004000F0B8F98B
:10042000002001908DF808008DF809004FF460203D
:1004300003900020049001208DF8140001A92046AB
:10044000FFF74AFF01212046FFF719FF2046FFF77B
:10045000C7FF00BF2046FFF734FF0028FAD120462F
:10046000FFF7CEFF00BF2046FFF714FF0028FAD1A8
:1004700001212046FFF7B9FF06B010BD00BFFEE71F
:1004800070472DE9F0410246002500260020002398
:100490000024002791F803C00CF00F0591F803C069
:1004A0000CF0100CBCF1000F03D091F802C04CEA24
:1004B000050591F800C0BCF1000F31D01468002090
:1004C0002BE04FF0010C0CFA00F3B1F800C00CEA7D
:1004D00003069E4220D183004FF00F0C0CFA03F765
:1004E000BC4305FA03FC4CEA040491F803C0BCF1D8
:1004F000280F06D14FF0010C0CFA00FCC2F814C012
:100500000AE091F803C0BCF1480F05D14FF0010C8F
:100510000CFA00FCC2F810C0401C0828D1D31460AB
:10052000B1F800C0BCF1FF0F34DD546800202EE0AC
:1005300000F1080C4FF0010808FA0CF3B1F800C004
:100540000CEA03069E4221D183004FF00F0C0CFAF7
:1005500003F7BC4305FA03FC4CEA040491F803C01A
:10056000BCF1280F05D100F1080C08FA0CF8C2F80C
:10057000148091F803C0BCF1480F07D100F1080CBA
:100580004FF0010808FA0CF8C2F81080401C082847
:10059000CED35460BDE8F08170B504460D46072304
:1005A000012229462046FFF7BFFE01212046FFF722
:1005B0001CFF00BF02212046FFF77AFE0028F9D079
:1005C0002046FFF771FE70BD2DE9F14F0120204953
:1005D000086000201F49C1F8940101201C490C311A
:1005E000086000201B49C1F8A001009800F085FEBA
:1005F00006460F461848007800F096FE8246174AD5
:10060000174B00F0A5FE804632463B4600F0A0FEA8
:10061000044600F045FE13490880009800F06DFE86
:10062000804689461048007800F07EFE06460B4A58
:100630000B4B00F08DFE044642464B4600F088FE10
:10064000824600F02DFE07490C310880BDE8F88F86
:100650009081214200802142000000200AD7A3702F
:100660003D0AE73F340800400100002000BFFEE7DC
:1006700010B5482000F04CF94FF4A06000F028F8C5
:1006800000F054FB00F006F800F024F910BD00BFA4
:10069000FEE7000008B50121082000F095F84FF4AE
:1006A000D870ADF8000010208DF8030003208DF8FD
:1006B000020069460448FFF7E4FE002141F61F40AE
:1006C00000F010F808BD0000000C01407047000069
:1006D00002490143024A1160704700000000FA0518
:1006E0000CED00E030B589B005460C460121042030
:1006F00000F05AF80121082000F066F84FF410705D
:10070000ADF8200018208DF8230003208DF822007A
:1007100008A91C48FFF7B5FEADF81850ADF8144015
:100720000020ADF81A00ADF8160005A9164800F033
:10073000ABFA6020ADF804000120ADF806000020FF
:10074000ADF80A00ADF80C0001A90F4800F0A0F9BF
:1007500001A90D4800F04CFA01210B4800F088F97E
:100760000821094800F0E0F90821074800F07EFA66
:100770000121054800F064F90121034800F06CF9FB
:1007800009B030BD000C0140000800407047000077
:1007900001460020034A506820F44040084350605E
:1007A000704700000010024029B1064AD269024396
:1007B000044BDA6104E0034AD2698243014BDA61F7
:1007C000704700000010024029B1064A92690243B6
:1007D000044B9A6104E0034A92698243014B9A6197
:1007E0007047000000100240704710B500F002F89A
:1007F00010BD00000CB50020019000903348006847
:1008000040F480303149086000BF3048006800F48F
:10081000003000900198401C0190009818B9019890
:10082000B0F5A06FF1D12948006800F4003010B194
:100830000120009001E0002000900098012843D1A1
:100840002348006840F0100021490860084600680D
:1008500020F0030008600846006840F002000860CD
:100860001A48406819494860084640684860084688
:10087000406840F4806048600846406820F47C107E
:1008800048600846406840F4E81048600846006840
:1008900040F08070086000BF0C48006800F00070F5
:1008A0000028F9D00948406820F003000749486053
:1008B0000846406840F00200486000BF03484068B6
:1008C00000F00C000828F9D10CBD00000010024017
:1008D0000020024010B540F2CF2140F2CF7000F06E
:1008E00065F810BD042808D14FF0E021096941F0F6
:1008F00004014FF0E022116107E04FF0E0210969A7
:1009000021F004014FF0E0221161704770470000B0
:1009100010B504466FF00400FFF7E4FFE11704EBA5
:100920005171C1F3C701074A11701046007800EBFE
:100930004001C1EBC0104FF6FF7101EAC00002494F
:10094000088010BD060000200800002010B51348E4
:10095000006840F0010011490860084640681049ED
:1009600008400E494860084600680E4908400B4997
:1009700008600846006820F4802008600846406847
:1009800020F4FE0048604FF41F008860FFF72DFF41
:100990004FF000600449086010BD000000100240E4
:1009A0000000FFF8FFFFF6FE08ED00E030B589B06B
:1009B00005460C4601210420FFF706FF01210846E9
:1009C000FFF7F2FE0420ADF8040003208DF80600C6
:1009D00018208DF8070001A91848FFF752FDADF85F
:1009E0001C50ADF818400020ADF81E00ADF81A00FC
:1009F00006A94FF0804000F047F96020ADF80800EC
:100A00000020ADF81000ADF80E000120ADF80A008E
:100A100002A9800700F092F80121880700F028F869
:100A20000821C80600F0DAF80121880700F008F86C
:100A30000121880700F010F809B030BD000801401E
:100A400021B1028842F08002028004E002884FF661
:100A50007F731A400280704721B1028842F0010280
:100A6000028004E002884FF6FE731A40028070474D
:100A700031B1B0F8442042F40042A0F8442005E02F
:100A8000B0F84420C2F30E02A0F8442070470000E2
:100A900070B5002400220023058C4FF6FE76354009
:100AA0000584028C8388048B4FF68F752C40B51E0D
:100AB0002C400D882C43751E2A400D892A434D88F1
:100AC0002A43144DA8420BD0134DA84208D0134D11
:100AD000A84205D0124DA84202D0124DA84213D10F
:100AE0004FF6F7752A404D892A434FF6FB752A4089
:100AF0008D882A434FF6FF652B404FF6FF552B405C
:100B00008D892B43CD892B4383800483CD888586B3
:100B1000028470BD002C01400034014000400140BF
:100B200000440140004801400A460021018B4FF675
:100B3000F7731940114301837047000070B500241A
:100B400000220023058C4FF6FF6635400584028C99
:100B50008388848B4FF68F752C404FF6FC752C40A4
:100B60000D882C434FF6FF552A400D894FF6FF762E
:100B700006EA05252A434D8806EA05252A43154D30
:100B8000A84202D0144DA8421DD14FF2FF752A4051
:100B90004D894FF6FF7606EA05252A434FF6FF35C5
:100BA0002A408D8806EA05252A434EF6FF752B401C
:100BB0004DF6FF752B408D8906EA05152B43CD892F
:100BC00006EA05152B4383808483CD8885870284BC
:100BD00070BD0000002C0140003401400A46002195
:100BE000818B4FF6F77319401143818370470000E2
:100BF00070B5002200230024058C4EF6FF763540A8
:100C00000584038C8488828B48F6FF752A404FF652
:100C1000FF452A400D884FF6FF7606EA05252A4350
:100C20004DF6FF752B400D8906EA05352B434D889F
:100C300006EA05352B430B4DA84202D00A4DA842C7
:100C400008D14BF6FF752C408D894FF6FF7606EAEA
:100C500085152C4384808283CD88A0F8405003847E
:100C600070BD0000002C0140003401400A46002104
:100C7000818B4FF2FF7319404FF6FF7303EA022393
:100C80001943818370470000002202881D4B98425F
:100C90000ED01D4B98420BD0B0F1804F08D01B4BAB
:100CA000984205D01A4B984202D01A4B984204D170
:100CB0004FF68F731A404B881A43174B984207D050
:100CC000164B984204D04FF6FF431A40CB881A4384
:100CD00002808B8883850B8803850A4B98420BD052
:100CE000094B984208D00E4B984205D00D4B9842C4
:100CF00002D00D4B984201D10B7A038601238382E7
:100D000070470000002C0140003401400004004006
:100D100000080040000C004000100040001400409B
:100D200000400140004401400048014008B5012155
:100D30001420FFF749FD0120ADF8000010208DF8C8
:100D4000030002208DF8020069461048FFF799FB66
:100D50000420ADF8000010208DF8030002208DF86B
:100D6000020069460A48FFF78CFB0120ADF800003D
:100D700000208DF8030003208DF802006946044826
:100D8000FFF77FFB0348FFF740FB08BD0008014069
:100D9000001001400024014010B5002401203A4910
:100DA000086000203949C1F880010B2000F09EF94D
:100DB0000020354908600B2000F098F901203349E4
:100DC000C1F880010B2000F091F901202E49086044
:100DD0000B2000F08BF900202C49C1F880010B207A
:100DE00000F084F900BF13E00020274908600A21C1
:100DF0002748FFF7D1FBC0F307102649085501200B
:100E00002549C1F88801162000F070F9601CC4B2B1
:100E1000802CE9DB00201C490860162000F066F9F0
:100E20001E48007800F02EF901201849C1F8800111
:100E30000B2000F05BF90120134908600B2000F043
:100E400055F900201149C1F880010B2000F04EF93E
:100E5000002413E000200C4908600A210C48FFF729
:100E60009BFBC0F307100B49085501200A49C1F844
:100E70008801162000F03AF9601CC4B2802CE9DB2E
:100E800000200149086010BD880122420000214273
:100E9000002401400C00002000002242020000203B
:100EA0002DE9F04F87B000246FF01D000590002061
:100EB000049003900290FFF76FFF374890F87E0090
:100EC000354981F87F00084690F800A090F800901E
:100ED00000BF0FE03048005D504503DA2E4810F89F
:100EE00004A006E02C48005D484502DD2A4810F8C1
:100EF0000490641C802CEDDB0AEB0901059800EBE3
:100F0000610B00240BE02448005D584503DDFF2001
:100F10002149085502E000201F490855641C802C17
:100F2000F1DB01200490012406E01B48005D10B9AC
:100F3000E0B2049002E0641C802CF6DB00BF7E204F
:100F400003907E2406E01448005D10B9E0B20390DF
:100F500002E0641E002CF6DC00BFDDE9031008444B
:100F6000401002904620FFF72FFB029800F0DCF9BA
:100F700007460A4A0A4B00F0EBF905460022094BE6
:100F800000F0E6F8CDE9000100F08AF94FF0804169
:100F9000888707B0BDE8F08F0C0000209A999999D6
:100FA0009999E93F0000524010B540F225510D4893
:100FB00000F032F880B10B4800F058F80A49088078
:100FC00008460188074800F056F800BF4021054850
:100FD00000F015F80128F9D14021024800F006F888
:100FE00010BD0000003801400400002001F4007230
:100FF000B2F5007F00D100BFCA43028070470246AD
:101000000020B1F5007F00D100BF13880B400BB169
:10101000012000E00020704770B502460024002344
:101020000025002040F66A16B14200D100BFC1F38E
:10103000421501F01F03012606FA03F3012D02D128
:101040009689334006E0022D02D1168A334001E032
:10105000968A33400C12012606FA04F416883440AE
:1010600013B10CB1012000E0002070BD014688885A
:10107000C0F308007047C1F308028280704700BFC8
:10108000FEE700000146114A12884A434FF0E02370
:101090005A6100229A611A46126942F001021A61ED
:1010A00000BF4FF0E022106900F001021AB100F415
:1010B0008032002AF5D04FF0E022126922F00102BE
:1010C0004FF0E0231A6100229A6170470800002067
:1010D00070B50446002500BF04E04FF47A70FFF7B6
:1010E000D1FF6D1CA542F8DB70BD00000146114A1E
:1010F00012784A434FF0E0235A6100229A611A465F
:10110000126942F001021A6100BF4FF0E02210693B
:1011100000F001021AB100F48032002AF5D04FF03D
:10112000E022126922F001024FF0E0231A6100224E
:101130009A61704706000020FFF79AFA8020C105E7
:1011400088870520FFF7C4FF01E0FFF7A9FEFCE751
:1011500010B591EA030F48BF83F0004300F1FE8110
:10116000841A71EB030C05D2121943EB0C03001B1C
:1011700061EB0C01DFF824E14FEA1154A4EB135C9E
:101180001EEA430F18BF9EEA445F73D023EA0E03A2
:10119000DCF1200E21EA045143F4801332D322FA09
:1011A0000CFE10EB0E0023FA0CFE41EB0E01CCF10D
:1011B000200E03FA0EFE10EB0E0051F10001B1F506
:1011C000801FCCF1200E32D201EB045112FA0EF244
:1011D000BDE8104058BF7047401C38BF5FEA42026C
:1011E00018BF7047002814BF20F0010041F1000132
:1011F0004FEA410313F5001F38BF7047A1F1C0410A
:1012000000F09EB9012A43EB0302ACF1200CDCF1A3
:101210001F0E32BF4FF0000E23FA0CF310EB030049
:1012200041EB0451B4EB115FD0D0A1EB045101F5B7
:10123000801149085FEA300001EB04510ED350F1F0
:10124000000038BF12FA0EFE08D1BDE81040C9E711
:10125000401C38BF5FEA4202CAD1C3E7BDE8104074
:101260004FEA410313F5001F38BF7047A1F1C04199
:1012700000F066B99EEA445F08D011EA5E0FBDE84F
:10128000104004BF01F0004100207047BDE810404D
:1012900070B500F007F900BF64FBBE3E0000E0FF40
:1012A0004FEA1153A3F58063D3F11E03A8BFD3F116
:1012B000200C08DB4FF0004242EAC12252EA5052B1
:1012C00032FA03F0704709420BD4102BC4BF002040
:1012D000704703F5787CBCF1FF3F05D04FF0FF303D
:1012E00070474FF00000704770B500F0DBF800BFAA
:1012F0004992248000207047F0E710F0004248BF78
:101300004042B0FA80F310FA03F10AD0C3F11D0392
:1013100003F580634FEA415002EB035202EBD12107
:1013200070474FF000007047B0FA80F310FA03F1F5
:101330000AD0C3F11D0303F580634FEA41504FEA21
:10134000035202EBD12170474FF0000070470000BC
:10135000DFF848C170B51CEA111E1EBF1CEA131548
:101360009EEA0C0F95EA0C0F00F06F8081EA0304EF
:1013700023EA4C134EEAD47E21EA4C1141F4801149
:1013800043F48013AE44A1FB024CA0FB0365AEF115
:101390007F7E361955EB0C05A1FB034C4CF1000385
:1013A000A0FB021C16EB0C06654153F10003094239
:1013B00018BF46F0010613F4007F0BD14FEA03314A
:1013C0004FEA0530340341EA155140EA16506FF0F8
:1013D00003020AE04FEAC3214FEAC520F40241EAC2
:1013E000555140EA56506FF0020202EB2E4201EBDB
:1013F000025585EACE710AD05FEA440C18BF24F08A
:10140000004450F1000041F1000120EAD47040F2A4
:10141000FE7C624500D270BDA84214BF4FF08044EC
:101420004FF04044002E08BF0024BEF1806FA8BFDB
:10143000A1F1C041BDE8704080F282804FF0000011
:1014400001F1C04101F0004170479EEA0C0F0CEA27
:10145000131518BF95EA0C0F06D04FF0000081EA73
:10146000030E0EF0004170BD00F01CF88900013E33
:1014700000F007B800F009B84FEA430C5FEA5C5C83
:1014800008D081EA030100F05BB84FEA410C5FEA43
:101490005C5CF6D14FF00000014970470000FF0787
:1014A0000000F87F0EF1020E2EF0030E5EF8046BC2
:1014B000364205D4012A43EB030515F5001F12D867
:1014C000012841EB010C1CF5001F0CD80ED14FEA8E
:1014D000D17C15F5001F0CEB4C0C0CF1020C08BF75
:1014E0004CEBD37C04E04FF0080C01E04FEAD37CD6
:1014F0000CEB4C0526FA05F606F00706B6F1040CCF
:1015000006D20EEB860CBDE870404CF0010C604733
:10151000DFE80CF0090B02024FF000414FF0000031
:10152000A1F5002170BD19461046012851EB0104B8
:1015300018BFD4F5001484BF002001F0004170BD35
:101540000808A0F500114FEA3101704710B591EA83
:10155000030F48BF83F000433FF502AE841A71EBDE
:10156000030C07D212198CF0004C43EB0C03001B48
:1015700061EB0C01DFF8A4E14FEA1154A4EB135C1A
:101580001EEA430F18BF9EEA445F00F0B08023EAD2
:101590006E03524221EA0451C3EB6E0338BF5B1E57
:1015A000DCF1200E25D322FA0CFE10EB0E0043FADC
:1015B0000CFE41EB0E01CCF1200E03FA0EFE10EBF7
:1015C0000E0051F10001CCF1200E29D412FA0EF2D6
:1015D00001EB0451BDE8104058BF7047401C1CBFD0
:1015E000B2F1004F704700280CBF491C20F00100E9
:1015F000704712EB020E43EB030218BF4FF0010ECF
:101600004EEA4202ACF1200CDCF11E0E54D943FA32
:101610000CFE10EB0E0051F1FF31CCF11E0ED5D5B2
:101620000EF1010E12FA0EFE404141EB010101EBF9
:10163000445C5FEA5C5C10D910EBDE7001EB045196
:1016400038BFBEF1004FBDE8104018BF70470028FA
:101650000CBF491C20F00100704730D24FEAD42C57
:1016600011F5001124F400641BD0B1FA81F20B3A99
:10167000A41AA41ED2F12003914030FA03F31943B7
:10168000904001EBCC71002C01EB0451BDE81040FF
:10169000A8BF704701F1C0414FF0000001F00041C8
:1016A0007047B0FA80F310FA03F100D110BDE41ACC
:1016B000173C4805C90AE4E701EB045110BD491085
:1016C00001EB0451BDE810404FEA300002E04FF05A
:1016D000000170474A0008BF0042F8D0B2F5001F71
:1016E00028BF704701F000414FF0000070479EEAAC
:1016F000445F07D011EA5E0FBDE8104004BF00212F
:1017000000207047BDE8104070B5FFF7CBFE00BF6A
:1017100040DFF63E83F00041104670470000E0FFD6
:1017200040170008000000200C0000006C010008B9
:101730004C1700080C000020E40600008801000897
:0C174000646432000000000000000000A3
:0400000508000131BD
:00000001FF
