:020000040800F2
:1000000068060020CD010008A50500083505000898
:1000100059050008E10200085D0E0008000000001C
:10002000000000000000000000000000CD060008F5
:10003000E50200080000000089060008F307000838
:10004000E7010008E7010008E7010008E7010008F0
:10005000E7010008E7010008E7010008E7010008E0
:10006000E7010008E7010008E7010008E7010008D0
:10007000E7010008E7010008E7010008E7010008C0
:10008000E7010008E7010008E7010008E7010008B0
:10009000E7010008E7010008E7010008E7010008A0
:1000A000E7010008E7010008E7010008E701000890
:1000B000E7010008E7010008E7010008E701000880
:1000C000E7010008E7010008E7010008E701000870
:1000D000E7010008E7010008E7010008E701000860
:1000E000E7010008E7010008E7010008E701000850
:1000F000E7010008E7010008E7010008E701000840
:10010000E7010008E7010008E7010008E70100082F
:10011000E7010008E7010008E7010008E70100081F
:10012000E7010008E7010008E7010008E70100080F
:1001300000F002F800F03AF80AA090E8000C8244BF
:100140008344AAF10107DA4501D100F02FF8AFF29C
:10015000090EBAE80F0013F0010F18BFFB1A43F0A5
:10016000010318470415000024150000103A24BFAD
:1001700078C878C1FAD8520724BF30C830C144BF0C
:1001800004680C607047000000230024002500264E
:10019000103A28BF78C1FBD8520728BF30C148BFEA
:1001A0000B6070471FB51FBD10B510BD00F031F8D2
:1001B0001146FFF7F7FF01F05BF800F04FF803B4CA
:1001C000FFF7F2FF03BC00F053F800000948804736
:1001D00009480047FEE7FEE7FEE7FEE7FEE7FEE729
:1001E000FEE7FEE7FEE7FEE704480549054A064B41
:1001F0007047000031080008310100086800002045
:1002000068060020680200206802002070477047DE
:100210007047754600F028F8AE460500694653461B
:1002200020F00700854618B020B5FFF7DDFFBDE8D8
:1002300020404FF000064FF000074FF000084FF04D
:10024000000B21F00701AC46ACE8C009ACE8C009DE
:10025000ACE8C009ACE8C0098D4670470446AFF36E
:1002600000802046FFF7ABFF0048704704000020E5
:1002700001491820ABBEFEE72600020070470000CF
:100280000021144A11600121134AC2F88011114A59
:10029000121D11600021104AC2F8841100EBC00148
:1002A000C904090C0D4A118000EBC001C900C1F559
:1002B000E151121D118000EBC001C900C1F5E151EF
:1002C000121D118000EBC001C904090C121D118020
:1002D00070470000900122420080214234340140E6
:1002E00000BFFEE77047000008B50121102000F0B4
:1002F000DDF94FF4C040ADF8000010208DF8030088
:1003000003208DF802006946054800F00FF8002030
:100310000449086001200449C1F8B80108BD000083
:1003200000100140B4012242000022422DE9F041B8
:10033000024600250026002000230024002791F813
:1003400003C00CF00F0591F803C00CF0100CBCF1C9
:10035000000F03D091F802C04CEA050591F800C0E7
:10036000BCF1000F31D0146800202BE04FF0010CDD
:100370000CFA00F3B1F800C00CEA03069E4220D14B
:1003800083004FF00F0C0CFA03F7BC4305FA03FC93
:100390004CEA040491F803C0BCF1280F06D14FF0D9
:1003A000010C0CFA00FCC2F814C00AE091F803C07A
:1003B000BCF1480F05D14FF0010C0CFA00FCC2F85B
:1003C00010C0401C0828D1D31460B1F800C0BCF1A3
:1003D000FF0F34DD546800202EE000F1080C4FF0D0
:1003E000010808FA0CF3B1F800C00CEA03069E42BB
:1003F00021D183004FF00F0C0CFA03F7BC4305FA30
:1004000003FC4CEA040491F803C0BCF1280F05D1A9
:1004100000F1080C08FA0CF8C2F8148091F803C037
:10042000BCF1480F07D100F1080C4FF0010808FAA1
:100430000CF8C2F81080401C0828CED35460BDE8E8
:10044000F0810000F0B50A460023002400210025B9
:1004500000F00046B6F1004F02D11D4EF16901E0F7
:100460001B4E7168C0F3034583B200F44016B6F525
:10047000401F08D121F07061154E766826F0706635
:10048000134F7E6012E000F48016B6F5801F06D18F
:10049000032606FA05F4A14341F0706106E0460D1B
:1004A000360103FA06F6B14341F0706122B1460D00
:1004B000360103FA06F6314300F00046B6F1004F6C
:1004C00002D1034EF16101E0014E7160F0BD000008
:1004D000000001400121144A11600021134AC2F8B2
:1004E0008011114A121D11600121104AC2F88411B5
:1004F00000EBC001C900C1F5E1510D4A118000EBCC
:10050000C001C904090C121D118000EBC001C9040F
:10051000090C121D118000EBC001C900C1F5E151A9
:10052000121D11807047000090012242008021427C
:100530003434014000BFFEE710B5482000F05AF9FE
:100540004FF4A06000F030F8002141F61F4000F0A9
:1005500035F800F031F910BD00BFFEE708B5012104
:10056000182000F0A3F80320ADF8000010208DF84B
:10057000030003208DF8020069460848FFF7D6FE05
:100580003020ADF8000010208DF8030003208DF816
:10059000020069460248FFF7C9FE08BD000C014091
:1005A000001001407047000002490143024A1160F7
:1005B000704700000000FA050CED00E030B589B08E
:1005C00005460C46FFF7CAFF0121480300F06EF80C
:1005D0000121102000F06AF84FF47070ADF820008F
:1005E00018208DF8230003208DF8220008A9244844
:1005F000FFF79CFEADF81850ADF814400020ADF8A0
:100600001A00ADF8160005A91E4800F017FB60207F
:10061000ADF804000120ADF806000020ADF80A0096
:10062000ADF80C0001A9174800F0ACF901A9154874
:1006300000F0FEF901A9134800F05AFA01A9114887
:1006400000F0B0FA01210F4800F08CF908210D48A4
:1006500000F0E4F908210B4800F03CFA08210948B1
:1006600000F096FA0821074800F0DAFA012105485F
:1006700000F060F90121034800F068F909B030BDCD
:1006800000100140003401407047000029B1064AC3
:10069000D2690243044BDA6104E0034AD26982431F
:1006A000014BDA61704700000010024029B1064A90
:1006B00092690243044B9A6104E0034A92698243BF
:1006C000014B9A617047000000100240704710B55E
:1006D00000F002F810BD00000CB500200190009061
:1006E0003348006840F480303149086000BF30482A
:1006F000006800F4003000900198401C01900098C0
:1007000018B90198B0F5A06FF1D12948006800F43C
:10071000003010B10120009001E00020009000980E
:10072000012843D12348006840F0100021490860A7
:100730000846006820F0030008600846006840F0A2
:10074000020008601A484068194948600846406835
:1007500048600846406840F4806048600846406849
:1007600020F47C1048600846406840F4E810486077
:100770000846006840F08070086000BF0C480068C0
:1007800000F000700028F9D00948406820F003000C
:10079000074948600846406840F00200486000BFD2
:1007A0000348406800F00C000828F9D10CBD000097
:1007B000001002400020024010B5FFF795FD41F601
:1007C0001F41C82000F064F810BD042808D14FF084
:1007D000E021096941F004014FF0E022116107E0D6
:1007E0004FF0E021096921F004014FF0E02211618E
:1007F0007047704710B504466FF00400FFF7E5FF3F
:10080000E11704EB5171C1F3C701074A117010469B
:10081000007800EB4001C1EBC0104FF6FF7101EA18
:10082000C0000249088010BD000000200200002026
:1008300010B51348006840F00100114908600846EF
:100840004068104908400E494860084600680E4953
:1008500008400B4908600846006820F480200860C2
:100860000846406820F4FE0048604FF41F0088608E
:10087000FFF72DFF4FF000600449086010BD000035
:10088000001002400000FFF8FFFFF6FE08ED00E058
:1008900030B589B005460C4601210420FFF706FF5C
:1008A00001210220FFF7F2FE4020ADF804000320F2
:1008B0008DF8060018208DF8070001A91A48FFF7E7
:1008C00035FD01211948FFF7BDFDADF81C50ADF80D
:1008D00018400020ADF81E00ADF81A0006A9144813
:1008E00000F0ACF96020ADF808000020ADF8100071
:1008F000ADF80E000120ADF80A0002A90C4800F086
:1009000041F801210A4800F02DF80821084800F0BC
:1009100085F80121064800F00DF80121044800F097
:1009200015F809B030BD000000080140000C1A00A5
:100930000004004021B1028842F08002028004E0FD
:1009400002884FF67F731A400280704721B10288F7
:1009500042F00102028004E002884FF6FE731A4062
:100960000280704731B1B0F8442042F40042A0F850
:10097000442005E0B0F84420C2F30E02A0F8442061
:100980007047000070B5002400220023058C4FF64C
:10099000FE7635400584028C8388048B4FF68F7574
:1009A0002C40B51E2C400D882C43751E2A400D8905
:1009B0002A434D882A43144DA8420BD0134DA84218
:1009C00008D0134DA84205D0124DA84202D0124DB6
:1009D000A84213D14FF6F7752A404D892A434FF6A6
:1009E000FB752A408D882A434FF6FF652B404FF652
:1009F000FF552B408D892B43CD892B438380048366
:100A0000CD888586028470BD002C014000340140F1
:100A10000040014000440140004801400A460021D6
:100A2000018B4FF6F77319401143018370470000A3
:100A300070B5002400220023058C4FF6EF76354078
:100A40000584028C8388048B48F6FF752C404FF692
:100A5000FF452C400D884FF6FF7606EA05252C430E
:100A60004FF6DF752A400D8906EA05152A434D88A1
:100A700006EA05152A43154DA84202D0144DA84296
:100A80001DD14FF67F752A404D894FF6FF7606EA55
:100A900005152A434FF6BF752A408D8806EA0515CD
:100AA0002A434FF6FF352B404FF2FF752B408D89BF
:100AB00006EA85052B43CD8906EA85052B4383800D
:100AC0000483CD880587028470BD0000002C01409E
:100AD000003401400A460021018B4FF2FF73194098
:100AE0004FF6FF7303EA02231943018370470000A6
:100AF00070B5002400220023058C4FF6FF663540B8
:100B00000584028C8388848B4FF68F752C404FF6BA
:100B1000FC752C400D882C434FF6FF552A400D895B
:100B20004FF6FF7606EA05252A434D8806EA052595
:100B30002A43154DA84202D0144DA8421DD14FF2B0
:100B4000FF752A404D894FF6FF7606EA05252A43B0
:100B50004FF6FF352A408D8806EA05252A434EF6D2
:100B6000FF752B404DF6FF752B408D8906EA051564
:100B70002B43CD8906EA05152B4383808483CD88DA
:100B80008587028470BD0000002C014000340140C4
:100B90000A460021818B4FF6F77319401143818378
:100BA0007047000070B5002200230024058C4EF62B
:100BB000FF7635400584038C8488828B48F6FF7568
:100BC0002A404FF6FF452A400D884FF6FF7606EA89
:100BD00005252A434DF6FF752B400D8906EA05359C
:100BE0002B434D8806EA05352B430B4DA84202D016
:100BF0000A4DA84208D14BF6FF752C408D894FF65F
:100C0000FF7606EA85152C4384808283CD88A0F880
:100C10004050038470BD0000002C014000340140AE
:100C20000A460021818B4FF2FF7319404FF6FF7384
:100C300003EA0223194381837047000000220288DF
:100C40001D4B98420ED01D4B98420BD0B0F1804FF7
:100C500008D01B4B984205D01A4B984202D01A4B31
:100C6000984204D14FF68F731A404B881A43174BA2
:100C7000984207D0164B984204D04FF6FF431A40D3
:100C8000CB881A4302808B8883850B8803850A4BA7
:100C900098420BD0094B984208D00E4B984205D091
:100CA0000D4B984202D00D4B984201D10B7A03862E
:100CB0000123838270470000002C01400034014072
:100CC0000004004000080040000C004000100040FC
:100CD0000014004000400140004401400048014031
:100CE0002DE9FC5F04468946012027490860002061
:100CF0002649C1F880012449091D086001202349C3
:100D0000C1F88401484600F09AFB05460E4620468D
:100D100000F095FB07461E4A1E4B00F0A7FB2A4633
:100D20003346CDE9000100F0A1FB824600F058FBFC
:100D3000C0F5E15018490880484600F080FB0546A0
:100D40000E46204600F07BFB8246114A114B00F014
:100D50008DFB07462A46334600F088FBCDE90001AB
:100D600000F03EFB0C49091D088004EBC400C004E0
:100D7000000C091D088004EBC400C000C0F5E15060
:100D8000091D0880BDE8FC9F90012242008021429D
:100D90000AD7A3703D0AE73F343401402DE9FC5FD8
:100DA0000446894601202849086000202749C1F8E7
:100DB00080012549091D086001202449C1F88401EA
:100DC00004EBC400C000C0F5E1502149088004EBE9
:100DD000C400C004000C091D0880484600F02FFB29
:100DE00005460E46204600F02AFB0746194A1A4BD4
:100DF00000F03CFB2A463346CDE9000100F036FB0B
:100E0000824600F0EDFA124908310880484600F0A9
:100E100016FB05460E46204600F011FB82460D4AA1
:100E20000D4B00F023FB07462A46334600F01EFB1D
:100E3000CDE9000100F0D4FAC0F5E15004490C31CD
:100E40000880BDE8FC9F0000900122420080214202
:100E5000343401400AD7A3703D0AE73F00BFFEE7E4
:100E60000121134A1160134AC2F880110021104A6F
:100E7000121D11600F4AC2F8841100EBC001C900B5
:100E8000C1F5E1510C4A118000EBC001C900C1F568
:100E9000E151121D118000EBC001C904090C121DA3
:100EA000118000EBC001C904090C121D11807047AC
:100EB0009001224200802142343401402DE9FC5F40
:100EC000044689460120274908602749C1F8800166
:100ED00000202449091D08602349C1F884014846BF
:100EE00000F0ADFA05460E46204600F0A8FA074687
:100EF0001E4A1F4B00F0BAFA2A463346CDE90001DC
:100F000000F0B4FA824600F06BFAC0F5E1501949DE
:100F1000088004EBC400C000C0F5E150091D088042
:100F200004EBC400C004000C091D0880484600F012
:100F300086FA05460E46204600F081FA82460B4AA4
:100F40000B4B00F093FA07462A46334600F08EFA20
:100F5000CDE9000100F044FA06490C310880BDE8F3
:100F6000FC9F000090012242008021420AD7A3701A
:100F70003D0AE73F343401402DE9FC5F04468946D1
:100F80000120274908602749C1F880010020244931
:100F9000091D08602349C1F8840104EBC400C000A6
:100FA000C0F5E15020490880484600F048FA05465F
:100FB0000E46204600F043FA07461C4A1C4B00F040
:100FC00055FA2A463346CDE9000100F04FFA824631
:100FD00000F006FAC0F5E1501349091D08804846A3
:100FE00000F02DFA05460E46204600F028FA82460B
:100FF0000E4A0F4B00F03AFA07462A46334600F0F5
:1010000035FACDE9000100F0EBF907490831088015
:1010100004EBC400C004000C091D0880BDE8FC9F5F
:101020009001224200802142343401400AD7A3704B
:101030003D0AE73F0021134A1160134AC2F88011AC
:101040000121104A121D11600F4AC2F8841100EBF1
:10105000C001C904090C0D4A118000EBC001C9048C
:10106000090C121D118000EBC001C900C1F5E1514E
:10107000121D118000EBC001C900C1F5E151121D24
:101080001180704790012242008021423434014097
:101090002DE9FC5F0446894600202749086027495E
:1010A000C1F8800101202449091D08602349C1F8C5
:1010B000840104EBC400C004000C214908804846A8
:1010C00000F0BDF905460E46204600F0B8F9074687
:1010D0001C4A1D4B00F0CAF92A463346CDE90001EF
:1010E00000F0C4F9824600F07BF91549091D08801B
:1010F000484600F0A4F905460E46204600F09FF948
:101100008246104A104B00F0B1F907462A46334692
:1011100000F0ACF9CDE9000100F062F9C0F5E15052
:1011200007490831088004EBC400C000C0F5E15055
:10113000091D0880BDE8FC9F9001224200802142E9
:10114000343401400AD7A3703D0AE73F2DE9FC5F24
:10115000044689460020274908602749C1F88001D4
:1011600001202449091D08602349C1F8840148462B
:1011700000F065F905460E46204600F060F9074686
:101180001E4A1F4B00F072F92A463346CDE9000192
:1011900000F06CF9824600F023F91A49088004EB4C
:1011A000C400C004000C091D088004EBC400C0008A
:1011B000C0F5E150091D0880484600F040F9054699
:1011C0000E46204600F03BF982460C4A0C4B00F0DC
:1011D0004DF907462A46334600F048F9CDE90001AB
:1011E00000F0FEF8C0F5E15006490C310880BDE87A
:1011F000FC9F000090012242008021420AD7A37088
:101200003D0AE73F343401400146114A12884A43FF
:101210004FF0E0235A6100229A611A46126942F0A7
:1012200001021A6100BF4FF0E022106900F00102D4
:101230001AB100F48032002AF5D04FF0E022126992
:1012400022F001024FF0E0231A6100229A617047F8
:101250000200002070B50446002500BF04E04FF4F2
:101260007A70FFF7D1FF6D1CA542F8DB70BD00005E
:10127000282414252826FFF75FF90520FFF7EAFF49
:10128000AAE056480068012808D15448001D0068AB
:10129000012803D12046FFF71DF99DE04F48006863
:1012A000012808D14D48001D006820B9314620466C
:1012B000FFF716FD90E04948006848B94748001D0F
:1012C0000068012804D131462046FFF767FD83E01E
:1012D0004248006800287FD14048001D006800286F
:1012E0007AD11420FFF7F6F8C820FFF78DFF3B48AE
:1012F00018300068012804D038481C3000680128E4
:101300002ED12CE0354818300068012808D1334828
:101310001C300068012803D12046FFF7A1FD1EE024
:101320002E4818300068012808D12C481C3000686D
:1013300020B931462046FFF7C1FD10E0274818309C
:10134000006848B925481C300068012804D131469E
:101350002046FFF711FE02E02846FEF791FFD1E795
:101360001E4824300068012804D01C48143000684E
:1013700001282ED12CE0194824300068012808D11A
:10138000164814300068012803D12046FFF752FEAA
:101390001EE0124824300068012808D10F4814309C
:1013A000006820B931462046FFF772FE10E00B4876
:1013B0002430006848B9094814300068012804D175
:1013C00031462046FFF7C2FE02E02846FEF758FFEE
:1013D000D1E72846FEF754FF53E700001081214271
:1013E0004FEA41034FEA5353A3F58063D3F11E0341
:1013F000C8BFD3F1210C0CDD4FF0004242EAC122FC
:1014000042EA505232FA03FC8CEAE17CACEBE17028
:101410007047102BC4BF0020704703F5787CBCF1E7
:10142000FF3F04D06FF0004282EA2100704770B5A0
:1014300000F0C6F84992248000207047F2E710F0CF
:10144000004248BF4042B0FA80F310FA03F10AD0DC
:10145000C3F11D0303F580634FEA415002EB0352D1
:1014600002EBD12170474FF000007047DFF848C110
:1014700070B51CEA111E1EBF1CEA13159EEA0C0F64
:1014800095EA0C0F00F06F8081EA030423EA4C1305
:101490004EEAD47E21EA4C1141F4801143F48013CA
:1014A000AE44A1FB024CA0FB0365AEF17F7E361972
:1014B00055EB0C05A1FB034C4CF10003A0FB021CF7
:1014C00016EB0C06654153F10003094218BF46F0C4
:1014D000010613F4007F0BD14FEA03314FEA0530C8
:1014E000340341EA155140EA16506FF003020AE056
:1014F0004FEAC3214FEAC520F40241EA555140EAC0
:1015000056506FF0020202EB2E4201EB025585EAC3
:10151000CE710AD05FEA440C18BF24F0004450F1A9
:10152000000041F1000120EAD47040F2FE7C6245E7
:1015300000D270BDA84214BF4FF080444FF0404429
:10154000002E08BF0024BEF1806FA8BFA1F1C041EA
:10155000BDE8704080F282804FF0000001F1C04190
:1015600001F0004170479EEA0C0F0CEA131518BFFA
:1015700095EA0C0F06D04FF0000081EA030E0EF042
:10158000004170BD00F01CF88900013E00F007B872
:1015900000F009B84FEA430C5FEA5C5C08D081EACE
:1015A000030100F05BB84FEA410C5FEA5C5CF6D1E6
:1015B0004FF00000014970470000FF070000F87F6E
:1015C0000EF1020E2EF0030E5EF8046B364205D4C7
:1015D000012A43EB030515F5001F12D8012841EB42
:1015E000010C1CF5001F0CD80ED14FEAD17C15F56B
:1015F000001F0CEB4C0C0CF1020C08BF4CEBD37C25
:1016000004E04FF0080C01E04FEAD37C0CEB4C05F2
:1016100026FA05F606F00706B6F1040C06D20EEB24
:10162000860CBDE870404CF0010C6047DFE80CF020
:10163000090B02024FF000414FF00000A1F500211C
:1016400070BD19461046012851EB010418BFD4F5AE
:10165000001484BF002001F0004170BD0808A0F50F
:1016600000114FEA31017047881600080000002081
:10167000040000006C0100088C1600080400002023
:0C16800064060000880100080000000063
:0400000508000131BD
:00000001FF
