:020000040800F2
:1000000000070020CD010008F7050008D105000811
:10001000F305000881040008530D000800000000EB
:100020000000000000000000000000008D07000834
:1000300085040008000000007D060008A1080008F3
:10004000E7010008E7010008E7010008E7010008F0
:10005000E7010008E7010008E7010008E7010008E0
:10006000E7010008E7010008E7010008E7010008D0
:10007000E7010008E7010008E7010008E7010008C0
:10008000E7010008E7010008E7010008E7010008B0
:10009000E7010008E7010008E7010008E7010008A0
:1000A000E7010008E7010008E7010008E701000890
:1000B000E7010008E7010008E7010008E701000880
:1000C000E7010008E7010008E7010008E701000870
:1000D000E7010008810A0008E7010008E7010008BD
:1000E000E7010008E7010008E7010008E701000850
:1000F000E7010008E7010008E7010008E701000840
:10010000E7010008E7010008E7010008E70100082F
:10011000E7010008E7010008E7010008E70100081F
:10012000E7010008E7010008E7010008E70100080F
:1001300000F002F800F03AF80AA090E8000C8244BF
:100140008344AAF10107DA4501D100F02FF8AFF29C
:10015000090EBAE80F0013F0010F18BFFB1A43F0A5
:10016000010318470C0D00002C0D0000103A24BFAD
:1001700078C878C1FAD8520724BF30C830C144BF0C
:1001800004680C607047000000230024002500264E
:10019000103A28BF78C1FBD8520728BF30C148BFEA
:1001A0000B6070471FB51FBD10B510BD00F031F8D2
:1001B0001146FFF7F7FF00F029FE00F04FF803B4F7
:1001C000FFF7F2FF03BC00F053F800000948804736
:1001D00009480047FEE7FEE7FEE7FEE7FEE7FEE729
:1001E000FEE7FEE7FEE7FEE704480549054A064B41
:1001F00070470000E10800083101000800010020FC
:100200000007002000030020000300207047704713
:100210007047754600F028F8AE460500694653461B
:1002200020F00700854618B020B5FFF7DDFFBDE8D8
:1002300020404FF000064FF000074FF000084FF04D
:10024000000B21F00701AC46ACE8C009ACE8C009DE
:10025000ACE8C009ACE8C0098D4670470446AFF36E
:1002600000802046FFF7ABFF004870479C0000204D
:1002700001491820ABBEFEE726000200704721B1FD
:10028000826842F00102826003E0826822F001028B
:1002900082607047014600208A6802F004020AB1B9
:1002A000012000E0002070470146C86C80B2704712
:1002B0000246002013680B400BB1012000E0002033
:1002C0007047014600208A6802F008020AB1012046
:1002D00000E000207047000030B5024600200023F7
:1002E00050680F4C20400D790C6844EA05242043E7
:1002F000506090680B4C2040D1E902542C434D795A
:1003000044EA450420439060D06A20F470000C7CDD
:10031000641EE4B2234340EA0350D06230BD0000C3
:10032000FFFEF0FFFDF7F1FFF0B504460D4600209B
:100330000021092D11DDE068A5F10A0606EB46074C
:10034000072606FA07F18843A5F10A0606EB4606DA
:1003500003FA06F10843E0600CE0206905EB45076D
:10036000072606FA07F1884305EB450603FA06F16E
:1003700008432061072A0FDA606B561E06EB8607DA
:100380001F2606FA07F18843561E06EB860605FA75
:1003900006F10843606322E00D2A0FDA206BD61FB6
:1003A00006EB86071F2606FA07F18843D61F06EBE1
:1003B000860605FA06F10843206310E0E06AA2F120
:1003C0000D0606EB86071F2606FA07F18843A2F101
:1003D0000D0606EB860605FA06F10843E062F0BD5D
:1003E000816841F008018160704721B1826842F460
:1003F000A002826003E0826822F4A002826070475B
:10040000816841F0040181607047000000B585B04B
:100410000121480200F040F94FF4004000F030F9AB
:10042000002000908DF804008DF805004FF4602046
:1004300002900020039001208DF8100069460F48BB
:10044000FFF74AFF01210D48FFF719FF0B48FFF79F
:10045000C7FF00BF0948FFF734FF0028FAD107485B
:10046000FFF7CEFF00BF0548FFF714FF0028FAD1C1
:1004700001210248FFF7B9FF05B000BD002401408B
:1004800000BFFEE770472DE9F04102460025002637
:10049000002000230024002791F803C00CF00F0572
:1004A00091F803C00CF0100CBCF1000F03D091F8D0
:1004B00002C04CEA050591F800C0BCF1000F31D034
:1004C000146800202BE04FF0010C0CFA00F3B1F897
:1004D00000C00CEA03069E4220D183004FF00F0CAF
:1004E0000CFA03F7BC4305FA03FC4CEA040491F848
:1004F00003C0BCF1280F06D14FF0010C0CFA00FC30
:10050000C2F814C00AE091F803C0BCF1480F05D14D
:100510004FF0010C0CFA00FCC2F810C0401C082877
:10052000D1D31460B1F800C0BCF1FF0F34DD5468C2
:1005300000202EE000F1080C4FF0010808FA0CF33F
:10054000B1F800C00CEA03069E4221D183004FF0AF
:100550000F0C0CFA03F7BC4305FA03FC4CEA040445
:1005600091F803C0BCF1280F05D100F1080C08FA7E
:100570000CF8C2F8148091F803C0BCF1480F07D101
:1005800000F1080C4FF0010808FA0CF8C2F81080CE
:10059000401C0828CED35460BDE8F08110B5044655
:1005A0000723012221460948FFF7BEFE0121074823
:1005B000FFF71BFF00BF02210448FFF779FE002868
:1005C000F9D00248FFF770FE10BD00000024014082
:1005D00000BFFEE710B5482000F064F94FF4A060BA
:1005E00000F042F84FF4164000F06CFA00F0A8F961
:1005F00010BD00BFFEE7704770B5002100230F2239
:10060000C47804B3154C246804F4E064C4F5E064D1
:10061000210AC1F10403CA40447804FA03F1847842
:100620001440214309010E4C0678A155047804F0CA
:100630001F050124AC4005786D11AD0005F1E025E2
:10064000C5F8004109E0047804F01F050124AC401E
:10065000044D0678761145F8264070BD0CED00E09B
:1006600000E400E080E100E002490143024A116039
:10067000704700000000FA050CED00E07047000034
:1006800001460020034A506820F44040084350606F
:10069000704700000010024029B1064A92690243E7
:1006A000044B9A6104E0034A92698243014B9A61C8
:1006B000704700000010024030B5002100220024E5
:1006C00000232D4D6D6805F00C0121B1042905D0E2
:1006D000082923D105E0294D056022E0274D05605A
:1006E0001FE0254D6D6805F47012234D6D6805F40B
:1006F0008034022505EB92421CB9214D554305601B
:100700000BE01D4D6D6805F400351DB11C4D5543C2
:10071000056002E0194D5543056002E0174D056084
:1007200000BF00BF144D6D6805F0F0010909154DBB
:100730006B5C0568DD4045600F4D6D6805F4E06158
:10074000090A104D6B5C4568DD4085600A4D6D6897
:1007500005F46051C90A0B4D6B5C4568DD40C5600E
:10076000054D6D6805F44041890B074D6B5CC5680C
:10077000B5FBF3F5056130BD0010024000127A00B0
:1007800000093D000000002010000020704710B557
:1007900000F002F810BD00000CB5002001900090A0
:1007A0003348006840F480303149086000BF304869
:1007B000006800F4003000900198401C01900098FF
:1007C00018B90198B0F5A06FF1D12948006800F47C
:1007D000003010B10120009001E00020009000984E
:1007E000012843D12348006840F0100021490860E7
:1007F0000846006820F0030008600846006840F0E2
:10080000020008601A484068194948600846406874
:1008100048600846406840F4806048600846406888
:1008200020F47C1048600846406840F4E8104860B6
:100830000846006840F08070086000BF0C480068FF
:1008400000F000700028F9D00948406820F003004B
:10085000074948600846406840F00200486000BF11
:100860000348406800F00C000828F9D10CBD0000D6
:100870000010024000200240042808D14FF0E0217F
:10088000096941F004014FF0E022116107E04FF0E7
:10089000E021096921F004014FF0E0221161704765
:1008A0007047000010B504466FF00400FFF7E4FF46
:1008B000E11704EB5171C1F3C701074A11701046EB
:1008C000007800EB4001C1EBC0104FF6FF7101EA68
:1008D000C0000249088010BD16000020180000204A
:1008E00010B51348006840F001001149086008463F
:1008F0004068104908400E494860084600680E49A3
:1009000008400B4908600846006820F48020086011
:100910000846406820F4FE0048604FF41F008860DD
:10092000FFF735FF4FF000600449086010BD00007C
:10093000001002400000FFF8FFFFF6FE08ED00E0A7
:1009400008B501210420FFF7A7FE8420ADF80000C0
:1009500010208DF8030002208DF802006946094836
:10096000FFF791FD0820ADF8000000208DF803008E
:1009700003208DF8020069460248FFF784FDFFF767
:1009800045FD08BD0008014070B507250024012081
:100990003849086000203849C1F89C010B2000F05C
:1009A0000FFA0020334908600B2000F009FA0120FB
:1009B0003149C1F89C010B2000F002FA01202D49B9
:1009C00008600B2000F0FCF900202B49C1F89C01C5
:1009D0000B2000F0F5F900BF12E000202549086067
:1009E0000320FFF7DBFDC0F3071024490855012061
:1009F0002149C1F88801162000F0E2F9601CC4B258
:100A0000802CEADB00201B490860162000F0D8F992
:100A1000284600F0A1F901201749C1F89C010B20DC
:100A200000F0CEF90120134908600B2000F0C8F94E
:100A300000201149C1F89C010B2000F0C1F90024ED
:100A400012E000200B4908600320FFF7A7FDC0F368
:100A500007100A49085501200749C1F888011620E6
:100A600000F0AEF9601CC4B2802CEADB0020014922
:100A7000086070BD88012142000021421C00002056
:100A800010B540F225510D4800F09EF880B10B489A
:100A900000F056F90A49088008460188074800F026
:100AA00054F900BF4021054800F081F80128F9D130
:100AB0004021024800F066F810BD000000380140F7
:100AC0001400002010B586B0044601210420FFF771
:100AD000E3FD01218803FFF7DFFD01210846FFF751
:100AE000DBFD4FF40070ADF8140018208DF81700EE
:100AF00003208DF8160005A91F48FFF7C4FC4FF42A
:100B00008060ADF8140004208DF8170005A91A487C
:100B1000FFF7B9FC01940020ADF80800ADF80A0019
:100B2000ADF80C00ADF810000C20ADF80E0001A9D6
:100B3000124800F099F80121104800F02CF84021EB
:100B40000E4800F01FF8012240F225510B4800F03A
:100B500065F825208DF8000003208DF801008DF840
:100B6000020001208DF803006846FFF745FD0020D4
:100B70000349088006B010BD00080140003801405C
:100B80001400002001F40072B2F5007F00D100BF14
:100B9000CA430280704721B1828942F400528281A7
:100BA00004E082894DF6FF731A4082817047024645
:100BB0000020B1F5007F00D100BF13880B400BB1BE
:100BC000012000E00020704770B502460024002399
:100BD0000025002040F66A16B14200D100BFC1F3E3
:100BE000421501F01F03012606FA03F3012D02D17D
:100BF0009689334006E0022D02D1168A334001E087
:100C0000968A33400C12012606FA04F41688344002
:100C100013B10CB1012000E0002070BDF0B5034617
:100C2000002400260025002040F66A17B94200D1B2
:100C300000BF1846C1F3421401F01F06012707FA4E
:100C400006F5012C01D10C3004E0022C01D110304A
:100C500000E014301AB107682F43076002E007680C
:100C6000AF430760F0BD00002DE9F04786B00546B0
:100C70000E460024A24600BFA1460027B08900B15D
:100C800000BF2F462C8A4CF6FF700440F0880443C6
:100C90002C82AC894EF6F3100440B08831890843A9
:100CA000718908430443AC81AC8A4FF6FF4004408D
:100CB000B0890443AC8201A8FFF7FEFC1F488742BD
:100CC00002D1DDF810A001E0DDF80CA0A88900F445
:100CD000004040B10AEBCA0000EB0A10316849003D
:100CE000B0FBF1F807E00AEBCA0000EB0A1031682C
:100CF0008900B0FBF1F86420B8FBF0F00401200992
:100D0000642101FB1089A88900F4004040B1322021
:100D100000EBC900B0FBF1F000F00700044308E06D
:100D2000322000EB09106421B0FBF1F000F00F005D
:100D300004432C8106B0BDE8F08700000038014074
:100D400001468888C0F308007047C1F3080282801A
:100D5000704700BFFEE700000146114A12884A436F
:100D60004FF0E0235A6100229A611A46126942F05C
:100D700001021A6100BF4FF0E022106900F0010289
:100D80001AB100F48032002AF5D04FF0E022126947
:100D900022F001024FF0E0231A6100229A617047AD
:100DA0001800002070B50446002500BF04E04FF491
:100DB0007A70FFF7D1FF6D1CA542F8DB70BD000013
:100DC0000146114A12784A434FF0E0235A6100224B
:100DD0009A611A46126942F001021A6100BF4FF08F
:100DE000E022106900F001021AB100F48032002AFA
:100DF000F5D04FF0E022126922F001024FF0E0231B
:100E00001A6100229A6170471600002070B5002414
:100E10000025FFF7DFFB0F20FFF7C4FF00BF1DE039
:100E2000FFF7B2FD6420FFF797FF002410E00E48A3
:100E3000015D0E48FFF789FF00BF40210B48FFF717
:100E4000B6FE0128F9D140210848FFF79BFE641C3B
:100E5000802CECDB6420FFF77FFF6D1C6FF07F4080
:100E60008542DDDB002070BD1C0000200038014001
:100E7000900E0008000000201C0000006C0100081B
:100E8000AC0E00081C000020E406000088010008E9
:100E90000000000001020304010203040607080920
:0C0EA00002040608000000000000000032
:0400000508000131BD
:00000001FF
